:100000000C9434000C943E000C943E000C943E0082
:100010000C943E000C943E000C943E000C943E0068
:100020000C943E000C943E000C943E000C943E0058
:100030000C943E000C943E000C943E000C943E0048
:100040000C943E000C943E000C943E000C943E0038
:100050000C943E000C943E000C943E000C943E0028
:100060000C943E000C943E0011241FBECFEFD8E04C
:10007000DEBFCDBF0E9440000C945C000C940000D9
:10008000389A3998419A81E090E0319B0FC08436CC
:1000900091052CF401968436910509F44098EFE916
:1000A000FFE03197F1F700C00000EFCF0097B9F300
:0C00B0000197A9F7409AF3CFF894FFCF16
:00000001FF
